{
  "contractName": "Activatable",
  "abi": [
    {
      "anonymous": false,
      "inputs": [
        {
          "indexed": true,
          "internalType": "address",
          "name": "_sender",
          "type": "address"
        }
      ],
      "name": "Activate",
      "type": "event"
    },
    {
      "anonymous": false,
      "inputs": [
        {
          "indexed": true,
          "internalType": "address",
          "name": "_sender",
          "type": "address"
        }
      ],
      "name": "Deactivate",
      "type": "event"
    },
    {
      "anonymous": false,
      "inputs": [
        {
          "indexed": true,
          "internalType": "address",
          "name": "previousOwner",
          "type": "address"
        },
        {
          "indexed": true,
          "internalType": "address",
          "name": "newOwner",
          "type": "address"
        }
      ],
      "name": "OwnershipTransferred",
      "type": "event"
    },
    {
      "inputs": [],
      "name": "active",
      "outputs": [
        {
          "internalType": "bool",
          "name": "",
          "type": "bool"
        }
      ],
      "stateMutability": "view",
      "type": "function"
    },
    {
      "inputs": [],
      "name": "owner",
      "outputs": [
        {
          "internalType": "address",
          "name": "",
          "type": "address"
        }
      ],
      "stateMutability": "view",
      "type": "function"
    },
    {
      "inputs": [],
      "name": "renounceOwnership",
      "outputs": [],
      "stateMutability": "nonpayable",
      "type": "function"
    },
    {
      "inputs": [
        {
          "internalType": "address",
          "name": "newOwner",
          "type": "address"
        }
      ],
      "name": "transferOwnership",
      "outputs": [],
      "stateMutability": "nonpayable",
      "type": "function"
    },
    {
      "inputs": [],
      "name": "deactivate",
      "outputs": [],
      "stateMutability": "nonpayable",
      "type": "function"
    },
    {
      "inputs": [],
      "name": "activate",
      "outputs": [],
      "stateMutability": "nonpayable",
      "type": "function"
    }
  ],
  "bytecode": "0x60806040526000805460a060020a60ff021916905534801561002057600080fd5b50610043610035640100000000610048810204565b64010000000061004c810204565b61009c565b3390565b60008054600160a060020a03838116600160a060020a0319831681178455604051919092169283917f8be0079c531659141344cd1fd0a4f28419497f9722a3daafe3b4186f6b6457e09190a35050565b610459806100ab6000396000f3fe608060405234801561001057600080fd5b506004361061007e577c0100000000000000000000000000000000000000000000000000000000600035046302fb0c5e81146100835780630f15f4c0146100a157806351b42b00146100ab578063715018a6146100b35780638da5cb5b146100bb578063f2fde38b146100d0575b600080fd5b61008b6100e3565b6040516100989190610386565b60405180910390f35b6100a9610104565b005b6100a9610193565b6100a961020a565b6100c361021e565b6040516100989190610372565b6100a96100de366004610344565b61022d565b60005474010000000000000000000000000000000000000000900460ff1681565b60005474010000000000000000000000000000000000000000900460ff161561012c57600080fd5b61013461028a565b6000805474ff000000000000000000000000000000000000000019167401000000000000000000000000000000000000000017815560405133917ff7e9fe69e1d05372bc855b295bc4c34a1a0a5882164dd2b26df30a26c1c8ba1591a2565b60005474010000000000000000000000000000000000000000900460ff166101ba57600080fd5b6101c261028a565b6000805474ff00000000000000000000000000000000000000001916815560405133917f238ce44d0fada9e1348f183a8436996fb52b4c41a9cbf3af6e2dee00fcb80a9c91a2565b61021261028a565b61021c60006102e3565b565b600054600160a060020a031690565b61023561028a565b600160a060020a03811661027e576040517f08c379a000000000000000000000000000000000000000000000000000000000815260040161027590610391565b60405180910390fd5b610287816102e3565b50565b610292610340565b600160a060020a03166102a361021e565b600160a060020a03161461021c576040517f08c379a0000000000000000000000000000000000000000000000000000000008152600401610275906103ee565b60008054600160a060020a0383811673ffffffffffffffffffffffffffffffffffffffff19831681178455604051919092169283917f8be0079c531659141344cd1fd0a4f28419497f9722a3daafe3b4186f6b6457e09190a35050565b3390565b600060208284031215610355578081fd5b8135600160a060020a038116811461036b578182fd5b9392505050565b600160a060020a0391909116815260200190565b901515815260200190565b60208082526026908201527f4f776e61626c653a206e6577206f776e657220697320746865207a65726f206160408201527f6464726573730000000000000000000000000000000000000000000000000000606082015260800190565b6020808252818101527f4f776e61626c653a2063616c6c6572206973206e6f7420746865206f776e657260408201526060019056fea264697066735822122012465b5931c1ceb2e8540e6dab9176d30e6a554e8ebfd30a4b5323d346203c2d64736f6c63430008000033",
  "immutableReferences": {},
  "source": "// SPDX-License-Identifier: MIT\npragma solidity ^0.8.0;\n\nimport \"@openzeppelin/contracts/access/Ownable.sol\";\n\ncontract Activatable is Ownable {\n\n    event Deactivate(address indexed _sender);\n    event Activate(address indexed _sender);\n\n    // ①\n    bool public active = false;\n\n    // ②\n    modifier whenActive() {\n        require(active);\n        _;\n    }\n\n    // ③\n    modifier whenNotActive() {\n        require(!active);\n        _;\n    }\n\n    // ④\n    function deactivate() public whenActive onlyOwner {\n        active = false;\n        emit Deactivate(msg.sender);\n    }\n\n    // ⑤\n    function activate() public whenNotActive onlyOwner {\n        active = true;\n        emit Activate(msg.sender);\n    }\n}",
  "sourcePath": "/home/workspace/StudyBook/myproject/contracts/Activatable.sol",
  "compiler": {
    "name": "solc",
    "version": "0.8.0+commit.c7dfd78e.Emscripten.clang"
  },
  "schemaVersion": "3.4.13",
  "updatedAt": "2023-05-01T07:35:10.198Z",
  "devdoc": {
    "kind": "dev",
    "methods": {
      "owner()": {
        "details": "Returns the address of the current owner."
      },
      "renounceOwnership()": {
        "details": "Leaves the contract without owner. It will not be possible to call `onlyOwner` functions anymore. Can only be called by the current owner. NOTE: Renouncing ownership will leave the contract without an owner, thereby removing any functionality that is only available to the owner."
      },
      "transferOwnership(address)": {
        "details": "Transfers ownership of the contract to a new account (`newOwner`). Can only be called by the current owner."
      }
    },
    "version": 1
  },
  "userdoc": {
    "kind": "user",
    "methods": {},
    "version": 1
  }
}