{
  "contractName": "RoomFactory",
  "abi": [
    {
      "inputs": [],
      "name": "createRoom",
      "outputs": [],
      "stateMutability": "payable",
      "type": "function"
    }
  ],
  "bytecode": "0x608060405234801561001057600080fd5b50610840806100206000396000f3fe60806040526004361061003a577c010000000000000000000000000000000000000000000000000000000060003504633be272aa811461003f575b600080fd5b610047610049565b005b600060405161005790610078565b604051809103906000f080158015610073573d6000803e3d6000fd5b505050565b610785806100868339019056fe608060405234801561001057600080fd5b506000805460ff1916905561003d61002f640100000000610042810204565b640100000000610046810204565b61009f565b3390565b60008054600160a060020a0383811661010081810261010060a860020a0319851617855560405193049190911692909183917f8be0079c531659141344cd1fd0a4f28419497f9722a3daafe3b4186f6b6457e091a35050565b6106d7806100ae6000396000f3fe608060405260043610610098576000357c0100000000000000000000000000000000000000000000000000000000900480638da5cb5b1161006b5780638da5cb5b146101145780638f13402514610136578063d0e30db014610156578063f2fde38b1461015e57610098565b80632673bd741461009d5780633e4e10d6146100bf5780635c975abb146100d4578063715018a6146100ff575b600080fd5b3480156100a957600080fd5b506100bd6100b836600461056e565b61017e565b005b3480156100cb57600080fd5b506100bd610292565b3480156100e057600080fd5b506100e961031c565b6040516100f691906105b6565b60405180910390f35b34801561010b57600080fd5b506100bd610325565b34801561012057600080fd5b50610129610339565b6040516100f691906105a2565b34801561014257600080fd5b506100e9610151366004610556565b61034d565b6100bd610362565b34801561016a57600080fd5b506100bd610179366004610535565b6103ba565b610186610417565b60008181526001602052604090205460ff16156101a257600080fd5b600083116101af57600080fd5b30318311156101bd57600080fd5b600160a060020a0382166101d057600080fd5b6101d8610339565b600160a060020a031682600160a060020a031614156101f657600080fd5b6000818152600160208190526040808320805460ff1916909217909155518391600160a060020a0383169186156108fc0291879190818181858888f19350505050158015610248573d6000803e3d6000fd5b5082600160a060020a03167f6379339f0ae63e95e65fad18ca2a7ec4e7e3f05f3cc5f7079f4d8da8cec34faa8584604051610284929190610693565b60405180910390a250505050565b61029a610417565b30316102a557600080fd5b60405130803191819083156108fc029084906000818181858888f193505050501580156102d6573d6000803e3d6000fd5b5033600160a060020a03167fa9304f0ac97f820b11d5a66f29245fb1e76b1f1f93f46a84a71682e69d095e8083604051610310919061068a565b60405180910390a25050565b60005460ff1690565b61032d610417565b6103376000610470565b565b6000546101009004600160a060020a031690565b60016020526000908152604090205460ff1681565b61036a6104d6565b6000341161037757600080fd5b33600160a060020a03167f2da466a7b24304f47e87fa2e1e5a81b9831ce54fec19055ce277ca2f39ba42c4346040516103b0919061068a565b60405180910390a2565b6103c2610417565b600160a060020a03811661040b576040517f08c379a0000000000000000000000000000000000000000000000000000000008152600401610402906105c1565b60405180910390fd5b61041481610470565b50565b61041f610515565b600160a060020a0316610430610339565b600160a060020a031614610337576040517f08c379a000000000000000000000000000000000000000000000000000000000815260040161040290610655565b60008054600160a060020a0383811661010081810274ffffffffffffffffffffffffffffffffffffffff0019851617855560405193049190911692909183917f8be0079c531659141344cd1fd0a4f28419497f9722a3daafe3b4186f6b6457e091a35050565b6104de61031c565b15610337576040517f08c379a00000000000000000000000000000000000000000000000000000000081526004016104029061061e565b3390565b8035600160a060020a038116811461053057600080fd5b919050565b600060208284031215610546578081fd5b61054f82610519565b9392505050565b600060208284031215610567578081fd5b5035919050565b600080600060608486031215610582578182fd5b8335925061059260208501610519565b9150604084013590509250925092565b600160a060020a0391909116815260200190565b901515815260200190565b60208082526026908201527f4f776e61626c653a206e6577206f776e657220697320746865207a65726f206160408201527f6464726573730000000000000000000000000000000000000000000000000000606082015260800190565b60208082526010908201527f5061757361626c653a2070617573656400000000000000000000000000000000604082015260600190565b6020808252818101527f4f776e61626c653a2063616c6c6572206973206e6f7420746865206f776e6572604082015260600190565b90815260200190565b91825260208201526040019056fea2646970667358221220aebadb49580c6a24adc1743ba79fed7029b1865247567efc6d6a777c516c1bcb64736f6c63430008000033a26469706673582212200e79200316cef1107dd5915d767ff37d7788814a95a0b459ce32b1da36a80e4164736f6c63430008000033",
  "immutableReferences": {},
  "source": "// SPDX-License-Identifier: MIT\npragma solidity ^0.8.0;\n\nimport \"./Room.sol\";\n\ncontract RoomFactory {\n\n    function createRoom() external payable{\n        //address payable sender = payable(msg.sender);\n       Room newRoom = new Room();\n//        newRoom.constructor();\n    }\n}\n\n",
  "sourcePath": "/home/workspace/StudyBook/myproject/contracts/RoomFactory.sol",
  "compiler": {
    "name": "solc",
    "version": "0.8.0+commit.c7dfd78e.Emscripten.clang"
  },
  "schemaVersion": "3.4.13",
  "updatedAt": "2023-05-01T03:45:40.541Z",
  "devdoc": {
    "kind": "dev",
    "methods": {},
    "version": 1
  },
  "userdoc": {
    "kind": "user",
    "methods": {},
    "version": 1
  }
}