{
  "contractName": "RoomFactory",
  "abi": [
    {
      "anonymous": false,
      "inputs": [
        {
          "indexed": false,
          "internalType": "address",
          "name": "account",
          "type": "address"
        }
      ],
      "name": "Paused",
      "type": "event"
    },
    {
      "anonymous": false,
      "inputs": [
        {
          "indexed": true,
          "internalType": "address",
          "name": "_creator",
          "type": "address"
        },
        {
          "indexed": false,
          "internalType": "address",
          "name": "_room",
          "type": "address"
        },
        {
          "indexed": false,
          "internalType": "uint256",
          "name": "_depositedValue",
          "type": "uint256"
        }
      ],
      "name": "RoomCreated",
      "type": "event"
    },
    {
      "anonymous": false,
      "inputs": [
        {
          "indexed": false,
          "internalType": "address",
          "name": "account",
          "type": "address"
        }
      ],
      "name": "Unpaused",
      "type": "event"
    },
    {
      "inputs": [],
      "name": "paused",
      "outputs": [
        {
          "internalType": "bool",
          "name": "",
          "type": "bool"
        }
      ],
      "stateMutability": "view",
      "type": "function",
      "constant": true
    },
    {
      "inputs": [],
      "name": "createRoom",
      "outputs": [],
      "stateMutability": "payable",
      "type": "function",
      "payable": true
    }
  ],
  "bytecode": "0x608060405234801561001057600080fd5b506000805460ff19169055610afc8061002a6000396000f3fe608060405260043610610045577c010000000000000000000000000000000000000000000000000000000060003504633be272aa811461004a5780635c975abb14610054575b600080fd5b61005261007f565b005b34801561006057600080fd5b506100696100f9565b604051610076919061017f565b60405180910390f35b610087610102565b6000346040516100969061014c565b6040518091039082f09050801580156100b3573d6000803e3d6000fd5b50604051909150819033907f6849f7a409ad97d39c5ffa074bf765330bf1a574da99d4c4831196ecd77ea8da906100ed9084903490610159565b60405180910390a25050565b60005460ff1690565b61010a6100f9565b1561014a576040517f08c379a00000000000000000000000000000000000000000000000000000000081526004016101419061018a565b60405180910390fd5b565b610905806101c283390190565b73ffffffffffffffffffffffffffffffffffffffff929092168252602082015260400190565b901515815260200190565b60208082526010908201527f5061757361626c653a207061757365640000000000000000000000000000000060408201526060019056fe60806040526000805460ff60a860020a60ff02011916905561003961002b640100000000610066810204565b64010000000061006a810204565b600061004c640100000000610066810204565b90506100608164010000000061006a810204565b506100c3565b3390565b60008054600160a060020a0383811661010081810261010060a860020a0319851617855560405193049190911692909183917f8be0079c531659141344cd1fd0a4f28419497f9722a3daafe3b4186f6b6457e091a35050565b610833806100d26000396000f3fe6080604052600436106100b9576000357c0100000000000000000000000000000000000000000000000000000000900480635c975abb116100815780635c975abb1461014a578063715018a61461015f5780638da5cb5b146101745780638f13402514610196578063d0e30db0146101b6578063f2fde38b146101be576100b9565b806302fb0c5e146100be5780630f15f4c0146100e95780632673bd74146101005780633e4e10d61461012057806351b42b0014610135575b600080fd5b3480156100ca57600080fd5b506100d36101de565b6040516100e09190610712565b60405180910390f35b3480156100f557600080fd5b506100fe6101ee565b005b34801561010c57600080fd5b506100fe61011b3660046106ca565b61025c565b34801561012c57600080fd5b506100fe610370565b34801561014157600080fd5b506100fe610411565b34801561015657600080fd5b506100d3610478565b34801561016b57600080fd5b506100fe610481565b34801561018057600080fd5b50610189610495565b6040516100e091906106fe565b3480156101a257600080fd5b506100d36101b13660046106b2565b6104a9565b6100fe6104be565b3480156101ca57600080fd5b506100fe6101d9366004610691565b610516565b60005460a860020a900460ff1681565b60005460a860020a900460ff161561020557600080fd5b61020d610573565b6000805475ff000000000000000000000000000000000000000000191660a860020a17815560405133917ff7e9fe69e1d05372bc855b295bc4c34a1a0a5882164dd2b26df30a26c1c8ba1591a2565b610264610573565b60008181526001602052604090205460ff161561028057600080fd5b6000831161028d57600080fd5b303183111561029b57600080fd5b600160a060020a0382166102ae57600080fd5b6102b6610495565b600160a060020a031682600160a060020a031614156102d457600080fd5b6000818152600160208190526040808320805460ff1916909217909155518391600160a060020a0383169186156108fc0291879190818181858888f19350505050158015610326573d6000803e3d6000fd5b5082600160a060020a03167f6379339f0ae63e95e65fad18ca2a7ec4e7e3f05f3cc5f7079f4d8da8cec34faa85846040516103629291906107ef565b60405180910390a250505050565b60005460a860020a900460ff161561038757600080fd5b61038f610573565b303161039a57600080fd5b60405130803191819083156108fc029084906000818181858888f193505050501580156103cb573d6000803e3d6000fd5b5033600160a060020a03167fa9304f0ac97f820b11d5a66f29245fb1e76b1f1f93f46a84a71682e69d095e808360405161040591906107e6565b60405180910390a25050565b60005460a860020a900460ff1661042757600080fd5b61042f610573565b6000805475ff0000000000000000000000000000000000000000001916815560405133917f238ce44d0fada9e1348f183a8436996fb52b4c41a9cbf3af6e2dee00fcb80a9c91a2565b60005460ff1690565b610489610573565b61049360006105cc565b565b6000546101009004600160a060020a031690565b60016020526000908152604090205460ff1681565b6104c6610632565b600034116104d357600080fd5b33600160a060020a03167f2da466a7b24304f47e87fa2e1e5a81b9831ce54fec19055ce277ca2f39ba42c43460405161050c91906107e6565b60405180910390a2565b61051e610573565b600160a060020a038116610567576040517f08c379a000000000000000000000000000000000000000000000000000000000815260040161055e9061071d565b60405180910390fd5b610570816105cc565b50565b61057b610671565b600160a060020a031661058c610495565b600160a060020a031614610493576040517f08c379a000000000000000000000000000000000000000000000000000000000815260040161055e906107b1565b60008054600160a060020a0383811661010081810274ffffffffffffffffffffffffffffffffffffffff0019851617855560405193049190911692909183917f8be0079c531659141344cd1fd0a4f28419497f9722a3daafe3b4186f6b6457e091a35050565b61063a610478565b15610493576040517f08c379a000000000000000000000000000000000000000000000000000000000815260040161055e9061077a565b3390565b8035600160a060020a038116811461068c57600080fd5b919050565b6000602082840312156106a2578081fd5b6106ab82610675565b9392505050565b6000602082840312156106c3578081fd5b5035919050565b6000806000606084860312156106de578182fd5b833592506106ee60208501610675565b9150604084013590509250925092565b600160a060020a0391909116815260200190565b901515815260200190565b60208082526026908201527f4f776e61626c653a206e6577206f776e657220697320746865207a65726f206160408201527f6464726573730000000000000000000000000000000000000000000000000000606082015260800190565b60208082526010908201527f5061757361626c653a2070617573656400000000000000000000000000000000604082015260600190565b6020808252818101527f4f776e61626c653a2063616c6c6572206973206e6f7420746865206f776e6572604082015260600190565b90815260200190565b91825260208201526040019056fea26469706673582212200e9312f3714ca53aa8019c56aad9dafd1c080393a0e6c7cd0cce05be9f60f79364736f6c63430008000033a264697066735822122085633d42bc505f887e10813319ae38fa63004366b51ed4cd106f293f08bef7d164736f6c63430008000033",
  "immutableReferences": {},
  "source": "// SPDX-License-Identifier: MIT\npragma solidity ^0.8.0;\n\nimport \"@openzeppelin/contracts/security/Pausable.sol\";\nimport \"./Room.sol\";\n\ncontract RoomFactory is Pausable{\n\n    event RoomCreated(\n        address indexed _creator,\n        address _room,\n        uint256 _depositedValue\n    );\n\n    // ④\n    function createRoom() external payable whenNotPaused {\n        //Room newRoom = new Room();\n        Room newRoom = (new Room){value: msg.value}();\n\n       // Room インスタンスのアドレスを取得する\n        address roomAddress = address(newRoom);        \n        \n        emit RoomCreated(msg.sender, roomAddress, msg.value);\n    }\n\n}\n\n",
  "sourcePath": "/home/workspace/StudyBook/myproject/contracts/RoomFactory.sol",
  "compiler": {
    "name": "solc",
    "version": "0.8.0+commit.c7dfd78e.Emscripten.clang"
  },
  "schemaVersion": "3.4.13",
  "updatedAt": "2023-05-02T00:10:27.705Z",
  "networkType": "ethereum",
  "devdoc": {
    "kind": "dev",
    "methods": {
      "paused()": {
        "details": "Returns true if the contract is paused, and false otherwise."
      }
    },
    "version": 1
  },
  "userdoc": {
    "kind": "user",
    "methods": {},
    "version": 1
  }
}