{
  "_format": "hh-sol-artifact-1",
  "contractName": "MyEpicNFT",
  "sourceName": "contracts/MyEpicNFT.sol",
  "abi": [
    {
      "inputs": [],
      "stateMutability": "nonpayable",
      "type": "constructor"
    },
    {
      "anonymous": false,
      "inputs": [
        {
          "indexed": true,
          "internalType": "address",
          "name": "owner",
          "type": "address"
        },
        {
          "indexed": true,
          "internalType": "address",
          "name": "approved",
          "type": "address"
        },
        {
          "indexed": true,
          "internalType": "uint256",
          "name": "tokenId",
          "type": "uint256"
        }
      ],
      "name": "Approval",
      "type": "event"
    },
    {
      "anonymous": false,
      "inputs": [
        {
          "indexed": true,
          "internalType": "address",
          "name": "owner",
          "type": "address"
        },
        {
          "indexed": true,
          "internalType": "address",
          "name": "operator",
          "type": "address"
        },
        {
          "indexed": false,
          "internalType": "bool",
          "name": "approved",
          "type": "bool"
        }
      ],
      "name": "ApprovalForAll",
      "type": "event"
    },
    {
      "anonymous": false,
      "inputs": [
        {
          "indexed": false,
          "internalType": "address",
          "name": "sender",
          "type": "address"
        },
        {
          "indexed": false,
          "internalType": "uint256",
          "name": "tokenId",
          "type": "uint256"
        }
      ],
      "name": "NewEpicNFTMinted",
      "type": "event"
    },
    {
      "anonymous": false,
      "inputs": [
        {
          "indexed": true,
          "internalType": "address",
          "name": "from",
          "type": "address"
        },
        {
          "indexed": true,
          "internalType": "address",
          "name": "to",
          "type": "address"
        },
        {
          "indexed": true,
          "internalType": "uint256",
          "name": "tokenId",
          "type": "uint256"
        }
      ],
      "name": "Transfer",
      "type": "event"
    },
    {
      "inputs": [
        {
          "internalType": "address",
          "name": "to",
          "type": "address"
        },
        {
          "internalType": "uint256",
          "name": "tokenId",
          "type": "uint256"
        }
      ],
      "name": "approve",
      "outputs": [],
      "stateMutability": "nonpayable",
      "type": "function"
    },
    {
      "inputs": [
        {
          "internalType": "address",
          "name": "owner",
          "type": "address"
        }
      ],
      "name": "balanceOf",
      "outputs": [
        {
          "internalType": "uint256",
          "name": "",
          "type": "uint256"
        }
      ],
      "stateMutability": "view",
      "type": "function"
    },
    {
      "inputs": [
        {
          "internalType": "uint256",
          "name": "tokenId",
          "type": "uint256"
        }
      ],
      "name": "getApproved",
      "outputs": [
        {
          "internalType": "address",
          "name": "",
          "type": "address"
        }
      ],
      "stateMutability": "view",
      "type": "function"
    },
    {
      "inputs": [],
      "name": "getSaleLimit",
      "outputs": [
        {
          "internalType": "uint256",
          "name": "",
          "type": "uint256"
        }
      ],
      "stateMutability": "view",
      "type": "function"
    },
    {
      "inputs": [
        {
          "internalType": "address",
          "name": "owner",
          "type": "address"
        },
        {
          "internalType": "address",
          "name": "operator",
          "type": "address"
        }
      ],
      "name": "isApprovedForAll",
      "outputs": [
        {
          "internalType": "bool",
          "name": "",
          "type": "bool"
        }
      ],
      "stateMutability": "view",
      "type": "function"
    },
    {
      "inputs": [],
      "name": "makeAnEpicNFT",
      "outputs": [],
      "stateMutability": "nonpayable",
      "type": "function"
    },
    {
      "inputs": [],
      "name": "name",
      "outputs": [
        {
          "internalType": "string",
          "name": "",
          "type": "string"
        }
      ],
      "stateMutability": "view",
      "type": "function"
    },
    {
      "inputs": [
        {
          "internalType": "uint256",
          "name": "tokenId",
          "type": "uint256"
        }
      ],
      "name": "ownerOf",
      "outputs": [
        {
          "internalType": "address",
          "name": "",
          "type": "address"
        }
      ],
      "stateMutability": "view",
      "type": "function"
    },
    {
      "inputs": [
        {
          "internalType": "uint256",
          "name": "tokenId",
          "type": "uint256"
        }
      ],
      "name": "pickRandomFirstWord",
      "outputs": [
        {
          "internalType": "string",
          "name": "",
          "type": "string"
        }
      ],
      "stateMutability": "view",
      "type": "function"
    },
    {
      "inputs": [
        {
          "internalType": "uint256",
          "name": "tokenId",
          "type": "uint256"
        }
      ],
      "name": "pickRandomSecondWord",
      "outputs": [
        {
          "internalType": "string",
          "name": "",
          "type": "string"
        }
      ],
      "stateMutability": "view",
      "type": "function"
    },
    {
      "inputs": [
        {
          "internalType": "uint256",
          "name": "tokenId",
          "type": "uint256"
        }
      ],
      "name": "pickRandomThirdWord",
      "outputs": [
        {
          "internalType": "string",
          "name": "",
          "type": "string"
        }
      ],
      "stateMutability": "view",
      "type": "function"
    },
    {
      "inputs": [
        {
          "internalType": "address",
          "name": "from",
          "type": "address"
        },
        {
          "internalType": "address",
          "name": "to",
          "type": "address"
        },
        {
          "internalType": "uint256",
          "name": "tokenId",
          "type": "uint256"
        }
      ],
      "name": "safeTransferFrom",
      "outputs": [],
      "stateMutability": "nonpayable",
      "type": "function"
    },
    {
      "inputs": [
        {
          "internalType": "address",
          "name": "from",
          "type": "address"
        },
        {
          "internalType": "address",
          "name": "to",
          "type": "address"
        },
        {
          "internalType": "uint256",
          "name": "tokenId",
          "type": "uint256"
        },
        {
          "internalType": "bytes",
          "name": "data",
          "type": "bytes"
        }
      ],
      "name": "safeTransferFrom",
      "outputs": [],
      "stateMutability": "nonpayable",
      "type": "function"
    },
    {
      "inputs": [
        {
          "internalType": "address",
          "name": "operator",
          "type": "address"
        },
        {
          "internalType": "bool",
          "name": "approved",
          "type": "bool"
        }
      ],
      "name": "setApprovalForAll",
      "outputs": [],
      "stateMutability": "nonpayable",
      "type": "function"
    },
    {
      "inputs": [
        {
          "internalType": "bytes4",
          "name": "interfaceId",
          "type": "bytes4"
        }
      ],
      "name": "supportsInterface",
      "outputs": [
        {
          "internalType": "bool",
          "name": "",
          "type": "bool"
        }
      ],
      "stateMutability": "view",
      "type": "function"
    },
    {
      "inputs": [],
      "name": "symbol",
      "outputs": [
        {
          "internalType": "string",
          "name": "",
          "type": "string"
        }
      ],
      "stateMutability": "view",
      "type": "function"
    },
    {
      "inputs": [
        {
          "internalType": "uint256",
          "name": "tokenId",
          "type": "uint256"
        }
      ],
      "name": "tokenURI",
      "outputs": [
        {
          "internalType": "string",
          "name": "",
          "type": "string"
        }
      ],
      "stateMutability": "view",
      "type": "function"
    },
    {
      "inputs": [],
      "name": "totalSupply",
      "outputs": [
        {
          "internalType": "uint256",
          "name": "",
          "type": "uint256"
        }
      ],
      "stateMutability": "view",
      "type": "function"
    },
    {
      "inputs": [
        {
          "internalType": "address",
          "name": "from",
          "type": "address"
        },
        {
          "internalType": "address",
          "name": "to",
          "type": "address"
        },
        {
          "internalType": "uint256",
          "name": "tokenId",
          "type": "uint256"
        }
      ],
      "name": "transferFrom",
      "outputs": [],
      "stateMutability": "nonpayable",
      "type": "function"
    }
  ],
  "bytecode": "0x6080604052600a60085560405180610160016040528061012f81526020016200471c61012f913960099081620000369190620009d5565b506040518060c001604052806040518060400160405280600381526020017f414141000000000000000000000000000000000000000000000000000000000081525081526020016040518060400160405280600381526020017f424242000000000000000000000000000000000000000000000000000000000081525081526020016040518060400160405280600381526020017f434343000000000000000000000000000000000000000000000000000000000081525081526020016040518060400160405280600381526020017f444444000000000000000000000000000000000000000000000000000000000081525081526020016040518060400160405280600381526020017f454545000000000000000000000000000000000000000000000000000000000081525081526020016040518060400160405280600381526020017f4646460000000000000000000000000000000000000000000000000000000000815250815250600a906006620001b49291906200066e565b506040518060c001604052806040518060400160405280600381526020017f474747000000000000000000000000000000000000000000000000000000000081525081526020016040518060400160405280600381526020017f484848000000000000000000000000000000000000000000000000000000000081525081526020016040518060400160405280600381526020017f494949000000000000000000000000000000000000000000000000000000000081525081526020016040518060400160405280600381526020017f4a4a4a000000000000000000000000000000000000000000000000000000000081525081526020016040518060400160405280600381526020017f4b4b4b000000000000000000000000000000000000000000000000000000000081525081526020016040518060400160405280600381526020017f4c4c4c0000000000000000000000000000000000000000000000000000000000815250815250600b906006620003329291906200066e565b506040518060c001604052806040518060400160405280600381526020017f4d4d4d000000000000000000000000000000000000000000000000000000000081525081526020016040518060400160405280600381526020017f4e4e4e000000000000000000000000000000000000000000000000000000000081525081526020016040518060400160405280600381526020017f4f4f4f000000000000000000000000000000000000000000000000000000000081525081526020016040518060400160405280600381526020017f505050000000000000000000000000000000000000000000000000000000000081525081526020016040518060400160405280600381526020017f515151000000000000000000000000000000000000000000000000000000000081525081526020016040518060400160405280600381526020017f5252520000000000000000000000000000000000000000000000000000000000815250815250600c906006620004b09291906200066e565b50348015620004be57600080fd5b506040518060400160405280600981526020017f5371756172654e465400000000000000000000000000000000000000000000008152506040518060400160405280600681526020017f535155415245000000000000000000000000000000000000000000000000000081525081600090816200053c9190620009d5565b5080600190816200054e9190620009d5565b5050506200059c6040518060400160405280601881526020017f54686973206973206d79204e465420636f6e74726163742e0000000000000000815250620005a260201b620011581760201c565b62000b6f565b6200064281604051602401620005b9919062000b4b565b6040516020818303038152906040527f41304fac000000000000000000000000000000000000000000000000000000007bffffffffffffffffffffffffffffffffffffffffffffffffffffffff19166020820180517bffffffffffffffffffffffffffffffffffffffffffffffffffffffff83818316178352505050506200064560201b60201c565b50565b60008151905060006a636f6e736f6c652e6c6f679050602083016000808483855afa5050505050565b828054828255906000526020600020908101928215620006bb579160200282015b82811115620006ba578251829081620006a99190620009d5565b50916020019190600101906200068f565b5b509050620006ca9190620006ce565b5090565b5b80821115620006f25760008181620006e89190620006f6565b50600101620006cf565b5090565b5080546200070490620007c4565b6000825580601f1062000718575062000739565b601f0160209004906000526020600020908101906200073891906200073c565b5b50565b5b80821115620007575760008160009055506001016200073d565b5090565b600081519050919050565b7f4e487b7100000000000000000000000000000000000000000000000000000000600052604160045260246000fd5b7f4e487b7100000000000000000000000000000000000000000000000000000000600052602260045260246000fd5b60006002820490506001821680620007dd57607f821691505b602082108103620007f357620007f262000795565b5b50919050565b60008190508160005260206000209050919050565b60006020601f8301049050919050565b600082821b905092915050565b6000600883026200085d7fffffffffffffffffffffffffffffffffffffffffffffffffffffffffffffffff826200081e565b6200086986836200081e565b95508019841693508086168417925050509392505050565b6000819050919050565b6000819050919050565b6000620008b6620008b0620008aa8462000881565b6200088b565b62000881565b9050919050565b6000819050919050565b620008d28362000895565b620008ea620008e182620008bd565b8484546200082b565b825550505050565b600090565b62000901620008f2565b6200090e818484620008c7565b505050565b5b8181101562000936576200092a600082620008f7565b60018101905062000914565b5050565b601f82111562000985576200094f81620007f9565b6200095a846200080e565b810160208510156200096a578190505b6200098262000979856200080e565b83018262000913565b50505b505050565b600082821c905092915050565b6000620009aa600019846008026200098a565b1980831691505092915050565b6000620009c5838362000997565b9150826002028217905092915050565b620009e0826200075b565b67ffffffffffffffff811115620009fc57620009fb62000766565b5b62000a088254620007c4565b62000a158282856200093a565b600060209050601f83116001811462000a4d576000841562000a38578287015190505b62000a448582620009b7565b86555062000ab4565b601f19841662000a5d86620007f9565b60005b8281101562000a875784890151825560018201915060208501945060208101905062000a60565b8683101562000aa7578489015162000aa3601f89168262000997565b8355505b6001600288020188555050505b505050505050565b600082825260208201905092915050565b60005b8381101562000aed57808201518184015260208101905062000ad0565b60008484015250505050565b6000601f19601f8301169050919050565b600062000b17826200075b565b62000b23818562000abc565b935062000b3581856020860162000acd565b62000b408162000af9565b840191505092915050565b6000602082019050818103600083015262000b67818462000b0a565b905092915050565b613b9d8062000b7f6000396000f3fe608060405234801561001057600080fd5b50600436106101215760003560e01c80636352211e116100ad578063b88d4fde11610071578063b88d4fde1461032e578063c575757a1461034a578063c87b56dd1461037a578063de9d132f146103aa578063e985e9c5146103b457610121565b80636352211e1461026457806370a082311461029457806395d89b41146102c4578063a22cb465146102e2578063b187301f146102fe57610121565b806318160ddd116100f457806318160ddd146101c057806323b872dd146101de5780632de38d68146101fa5780633599fa931461022a57806342842e0e1461024857610121565b806301ffc9a71461012657806306fdde0314610156578063081812fc14610174578063095ea7b3146101a4575b600080fd5b610140600480360381019061013b9190612452565b6103e4565b60405161014d919061249a565b60405180910390f35b61015e6104c6565b60405161016b9190612545565b60405180910390f35b61018e6004803603810190610189919061259d565b610558565b60405161019b919061260b565b60405180910390f35b6101be60048036038101906101b99190612652565b61059e565b005b6101c86106b5565b6040516101d591906126a1565b60405180910390f35b6101f860048036038101906101f391906126bc565b6106c6565b005b610214600480360381019061020f919061259d565b610726565b6040516102219190612545565b60405180910390f35b61023261089c565b60405161023f91906126a1565b60405180910390f35b610262600480360381019061025d91906126bc565b6108a6565b005b61027e6004803603810190610279919061259d565b6108c6565b60405161028b919061260b565b60405180910390f35b6102ae60048036038101906102a9919061270f565b61094c565b6040516102bb91906126a1565b60405180910390f35b6102cc610a03565b6040516102d99190612545565b60405180910390f35b6102fc60048036038101906102f79190612768565b610a95565b005b6103186004803603810190610313919061259d565b610aab565b6040516103259190612545565b60405180910390f35b610348600480360381019061034391906128dd565b610ba3565b005b610364600480360381019061035f919061259d565b610c05565b6040516103719190612545565b60405180910390f35b610394600480360381019061038f919061259d565b610cfd565b6040516103a19190612545565b60405180910390f35b6103b2610e0f565b005b6103ce60048036038101906103c99190612960565b6110c4565b6040516103db919061249a565b60405180910390f35b60007f80ac58cd000000000000000000000000000000000000000000000000000000007bffffffffffffffffffffffffffffffffffffffffffffffffffffffff1916827bffffffffffffffffffffffffffffffffffffffffffffffffffffffff191614806104af57507f5b5e139f000000000000000000000000000000000000000000000000000000007bffffffffffffffffffffffffffffffffffffffffffffffffffffffff1916827bffffffffffffffffffffffffffffffffffffffffffffffffffffffff1916145b806104bf57506104be826111f1565b5b9050919050565b6060600080546104d5906129cf565b80601f0160208091040260200160405190810160405280929190818152602001828054610501906129cf565b801561054e5780601f106105235761010080835404028352916020019161054e565b820191906000526020600020905b81548152906001019060200180831161053157829003601f168201915b5050505050905090565b60006105638261125b565b6004600083815260200190815260200160002060009054906101000a900473ffffffffffffffffffffffffffffffffffffffff169050919050565b60006105a9826108c6565b90508073ffffffffffffffffffffffffffffffffffffffff168373ffffffffffffffffffffffffffffffffffffffff1603610619576040517f08c379a000000000000000000000000000000000000000000000000000000000815260040161061090612a72565b60405180910390fd5b8073ffffffffffffffffffffffffffffffffffffffff166106386112a6565b73ffffffffffffffffffffffffffffffffffffffff1614806106675750610666816106616112a6565b6110c4565b5b6106a6576040517f08c379a000000000000000000000000000000000000000000000000000000000815260040161069d90612b04565b60405180910390fd5b6106b083836112ae565b505050565b60006106c16007611367565b905090565b6106d76106d16112a6565b82611375565b610716576040517f08c379a000000000000000000000000000000000000000000000000000000000815260040161070d90612b96565b60405180910390fd5b61072183838361140a565b505050565b6060600061075a61073684611703565b6040516020016107469190612c3e565b6040516020818303038152906040526117d1565b905061079b6040518060400160405280600b81526020017f72616e6420736565643a2000000000000000000000000000000000000000000081525082611804565b600a80549050816107ac9190612c8f565b90506107ed6040518060400160405280601181526020017f72616e6420666972737420776f72643a2000000000000000000000000000000081525082611804565b600a818154811061080157610800612cc0565b5b906000526020600020018054610816906129cf565b80601f0160208091040260200160405190810160405280929190818152602001828054610842906129cf565b801561088f5780601f106108645761010080835404028352916020019161088f565b820191906000526020600020905b81548152906001019060200180831161087257829003601f168201915b5050505050915050919050565b6000600854905090565b6108c183838360405180602001604052806000815250610ba3565b505050565b6000806108d2836118a0565b9050600073ffffffffffffffffffffffffffffffffffffffff168173ffffffffffffffffffffffffffffffffffffffff1603610943576040517f08c379a000000000000000000000000000000000000000000000000000000000815260040161093a90612d3b565b60405180910390fd5b80915050919050565b60008073ffffffffffffffffffffffffffffffffffffffff168273ffffffffffffffffffffffffffffffffffffffff16036109bc576040517f08c379a00000000000000000000000000000000000000000000000000000000081526004016109b390612dcd565b60405180910390fd5b600360008373ffffffffffffffffffffffffffffffffffffffff1673ffffffffffffffffffffffffffffffffffffffff168152602001908152602001600020549050919050565b606060018054610a12906129cf565b80601f0160208091040260200160405190810160405280929190818152602001828054610a3e906129cf565b8015610a8b5780601f10610a6057610100808354040283529160200191610a8b565b820191906000526020600020905b815481529060010190602001808311610a6e57829003601f168201915b5050505050905090565b610aa7610aa06112a6565b83836118dd565b5050565b60606000610adf610abb84611703565b604051602001610acb9190612e39565b6040516020818303038152906040526117d1565b9050600b8054905081610af29190612c8f565b9050600b8181548110610b0857610b07612cc0565b5b906000526020600020018054610b1d906129cf565b80601f0160208091040260200160405190810160405280929190818152602001828054610b49906129cf565b8015610b965780601f10610b6b57610100808354040283529160200191610b96565b820191906000526020600020905b815481529060010190602001808311610b7957829003601f168201915b5050505050915050919050565b610bb4610bae6112a6565b83611375565b610bf3576040517f08c379a0000000000000000000000000000000000000000000000000000000008152600401610bea90612b96565b60405180910390fd5b610bff84848484611a49565b50505050565b60606000610c39610c1584611703565b604051602001610c259190612ea7565b6040516020818303038152906040526117d1565b9050600c8054905081610c4c9190612c8f565b9050600c8181548110610c6257610c61612cc0565b5b906000526020600020018054610c77906129cf565b80601f0160208091040260200160405190810160405280929190818152602001828054610ca3906129cf565b8015610cf05780601f10610cc557610100808354040283529160200191610cf0565b820191906000526020600020905b815481529060010190602001808311610cd357829003601f168201915b5050505050915050919050565b6060610d088261125b565b6000600660008481526020019081526020016000208054610d28906129cf565b80601f0160208091040260200160405190810160405280929190818152602001828054610d54906129cf565b8015610da15780601f10610d7657610100808354040283529160200191610da1565b820191906000526020600020905b815481529060010190602001808311610d8457829003601f168201915b505050505090506000610db2611aa5565b90506000815103610dc7578192505050610e0a565b600082511115610dfc578082604051602001610de4929190612ec9565b60405160208183030381529060405292505050610e0a565b610e0584611abc565b925050505b919050565b6000610e1b6007611367565b9050610e2561089c565b8110610e66576040517f08c379a0000000000000000000000000000000000000000000000000000000008152600401610e5d90612f39565b60405180910390fd5b6000610e7182610726565b90506000610e7e83610aab565b90506000610e8b84610c05565b90506000838383604051602001610ea493929190612f59565b60405160208183030381529060405290506000600982604051602001610ecb92919061306e565b6040516020818303038152906040529050610f1a6040518060400160405280601581526020017f0a2d2d2d2d2d2d2d2d2d2d2d2d2d2d2d2d2d2d2d2d0000000000000000000000815250611158565b610f2381611158565b610f616040518060400160405280601581526020017f2d2d2d2d2d2d2d2d2d2d2d2d2d2d2d2d2d2d2d2d0a0000000000000000000000815250611158565b6000610f9583610f7084611b24565b604051602001610f819291906131f3565b604051602081830303815290604052611b24565b9050600081604051602001610faa9190613284565b6040516020818303038152906040529050610ff96040518060400160405280601581526020017f0a2d2d2d2d2d20546f6b656e20555249202d2d2d2d0000000000000000000000815250611158565b61100281611158565b6110406040518060400160405280601581526020017f2d2d2d2d2d2d2d2d2d2d2d2d2d2d2d2d2d2d2d2d0a0000000000000000000000815250611158565b61104a3389611cbb565b6110548882611cd9565b611077604051806060016040528060258152602001613b03602591398933611d46565b6110816007611de5565b7febb98688741ffa4c7589bf325de30cf7becb63de567842e1ccdb6cb949fdc82c33896040516110b29291906132a6565b60405180910390a15050505050505050565b6000600560008473ffffffffffffffffffffffffffffffffffffffff1673ffffffffffffffffffffffffffffffffffffffff16815260200190815260200160002060008373ffffffffffffffffffffffffffffffffffffffff1673ffffffffffffffffffffffffffffffffffffffff16815260200190815260200160002060009054906101000a900460ff16905092915050565b6111ee8160405160240161116c9190612545565b6040516020818303038152906040527f41304fac000000000000000000000000000000000000000000000000000000007bffffffffffffffffffffffffffffffffffffffffffffffffffffffff19166020820180517bffffffffffffffffffffffffffffffffffffffffffffffffffffffff8381831617835250505050611dfb565b50565b60007f01ffc9a7000000000000000000000000000000000000000000000000000000007bffffffffffffffffffffffffffffffffffffffffffffffffffffffff1916827bffffffffffffffffffffffffffffffffffffffffffffffffffffffff1916149050919050565b61126481611e24565b6112a3576040517f08c379a000000000000000000000000000000000000000000000000000000000815260040161129a90612d3b565b60405180910390fd5b50565b600033905090565b816004600083815260200190815260200160002060006101000a81548173ffffffffffffffffffffffffffffffffffffffff021916908373ffffffffffffffffffffffffffffffffffffffff160217905550808273ffffffffffffffffffffffffffffffffffffffff16611321836108c6565b73ffffffffffffffffffffffffffffffffffffffff167f8c5be1e5ebec7d5bd14f71427d1e84f3dd0314c0f7b2291e5b200ac8c7c3b92560405160405180910390a45050565b600081600001549050919050565b600080611381836108c6565b90508073ffffffffffffffffffffffffffffffffffffffff168473ffffffffffffffffffffffffffffffffffffffff1614806113c357506113c281856110c4565b5b8061140157508373ffffffffffffffffffffffffffffffffffffffff166113e984610558565b73ffffffffffffffffffffffffffffffffffffffff16145b91505092915050565b8273ffffffffffffffffffffffffffffffffffffffff1661142a826108c6565b73ffffffffffffffffffffffffffffffffffffffff1614611480576040517f08c379a000000000000000000000000000000000000000000000000000000000815260040161147790613341565b60405180910390fd5b600073ffffffffffffffffffffffffffffffffffffffff168273ffffffffffffffffffffffffffffffffffffffff16036114ef576040517f08c379a00000000000000000000000000000000000000000000000000000000081526004016114e6906133d3565b60405180910390fd5b6114fc8383836001611e65565b8273ffffffffffffffffffffffffffffffffffffffff1661151c826108c6565b73ffffffffffffffffffffffffffffffffffffffff1614611572576040517f08c379a000000000000000000000000000000000000000000000000000000000815260040161156990613341565b60405180910390fd5b6004600082815260200190815260200160002060006101000a81549073ffffffffffffffffffffffffffffffffffffffff02191690556001600360008573ffffffffffffffffffffffffffffffffffffffff1673ffffffffffffffffffffffffffffffffffffffff168152602001908152602001600020600082825403925050819055506001600360008473ffffffffffffffffffffffffffffffffffffffff1673ffffffffffffffffffffffffffffffffffffffff16815260200190815260200160002060008282540192505081905550816002600083815260200190815260200160002060006101000a81548173ffffffffffffffffffffffffffffffffffffffff021916908373ffffffffffffffffffffffffffffffffffffffff160217905550808273ffffffffffffffffffffffffffffffffffffffff168473ffffffffffffffffffffffffffffffffffffffff167fddf252ad1be2c89b69c2b068fc378daa952ba7f163c4a11628f55a4df523b3ef60405160405180910390a46116fe8383836001611e6b565b505050565b60606000600161171284611e71565b01905060008167ffffffffffffffff811115611731576117306127b2565b5b6040519080825280601f01601f1916602001820160405280156117635781602001600182028036833780820191505090505b509050600082602001820190505b6001156117c6578080600190039150507f3031323334353637383961626364656600000000000000000000000000000000600a86061a8153600a85816117ba576117b9612c60565b5b04945060008503611771575b819350505050919050565b6000816040516020016117e491906133f3565b6040516020818303038152906040528051906020012060001c9050919050565b61189c828260405160240161181a92919061340a565b6040516020818303038152906040527fb60e72cc000000000000000000000000000000000000000000000000000000007bffffffffffffffffffffffffffffffffffffffffffffffffffffffff19166020820180517bffffffffffffffffffffffffffffffffffffffffffffffffffffffff8381831617835250505050611dfb565b5050565b60006002600083815260200190815260200160002060009054906101000a900473ffffffffffffffffffffffffffffffffffffffff169050919050565b8173ffffffffffffffffffffffffffffffffffffffff168373ffffffffffffffffffffffffffffffffffffffff160361194b576040517f08c379a000000000000000000000000000000000000000000000000000000000815260040161194290613486565b60405180910390fd5b80600560008573ffffffffffffffffffffffffffffffffffffffff1673ffffffffffffffffffffffffffffffffffffffff16815260200190815260200160002060008473ffffffffffffffffffffffffffffffffffffffff1673ffffffffffffffffffffffffffffffffffffffff16815260200190815260200160002060006101000a81548160ff0219169083151502179055508173ffffffffffffffffffffffffffffffffffffffff168373ffffffffffffffffffffffffffffffffffffffff167f17307eab39ab6107e8899845ad3d59bd9653f200f220920489ca2b5937696c3183604051611a3c919061249a565b60405180910390a3505050565b611a5484848461140a565b611a6084848484611fc4565b611a9f576040517f08c379a0000000000000000000000000000000000000000000000000000000008152600401611a9690613518565b60405180910390fd5b50505050565b606060405180602001604052806000815250905090565b6060611ac78261125b565b6000611ad1611aa5565b90506000815111611af15760405180602001604052806000815250611b1c565b80611afb84611703565b604051602001611b0c929190612ec9565b6040516020818303038152906040525b915050919050565b606060008251905060008103611b4c5760405180602001604052806000815250915050611cb6565b60006003600283611b5d9190613567565b611b67919061359b565b6004611b7391906135cc565b90506000602082611b849190613567565b67ffffffffffffffff811115611b9d57611b9c6127b2565b5b6040519080825280601f01601f191660200182016040528015611bcf5781602001600182028036833780820191505090505b5090506000604051806060016040528060408152602001613b28604091399050600181016020830160005b86811015611c735760038101905062ffffff818a015116603f8160121c168401518060081b905060ff603f83600c1c1686015116810190508060081b905060ff603f8360061c1686015116810190508060081b905060ff603f831686015116810190508060e01b90508084526004840193505050611bfa565b506003860660018114611c8d5760028114611c9d57611ca8565b613d3d60f01b6002830352611ca8565b603d60f81b60018303525b508484525050819450505050505b919050565b611cd582826040518060200160405280600081525061214b565b5050565b611ce282611e24565b611d21576040517f08c379a0000000000000000000000000000000000000000000000000000000008152600401611d1890613680565b60405180910390fd5b80600660008481526020019081526020016000209081611d419190613837565b505050565b611de0838383604051602401611d5e93929190613909565b6040516020818303038152906040527f1c7ec448000000000000000000000000000000000000000000000000000000007bffffffffffffffffffffffffffffffffffffffffffffffffffffffff19166020820180517bffffffffffffffffffffffffffffffffffffffffffffffffffffffff8381831617835250505050611dfb565b505050565b6001816000016000828254019250508190555050565b60008151905060006a636f6e736f6c652e6c6f679050602083016000808483855afa5050505050565b60008073ffffffffffffffffffffffffffffffffffffffff16611e46836118a0565b73ffffffffffffffffffffffffffffffffffffffff1614159050919050565b50505050565b50505050565b600080600090507a184f03e93ff9f4daa797ed6e38ed64bf6a1f0100000000000000008310611ecf577a184f03e93ff9f4daa797ed6e38ed64bf6a1f0100000000000000008381611ec557611ec4612c60565b5b0492506040810190505b6d04ee2d6d415b85acef81000000008310611f0c576d04ee2d6d415b85acef81000000008381611f0257611f01612c60565b5b0492506020810190505b662386f26fc100008310611f3b57662386f26fc100008381611f3157611f30612c60565b5b0492506010810190505b6305f5e1008310611f64576305f5e1008381611f5a57611f59612c60565b5b0492506008810190505b6127108310611f89576127108381611f7f57611f7e612c60565b5b0492506004810190505b60648310611fac5760648381611fa257611fa1612c60565b5b0492506002810190505b600a8310611fbb576001810190505b80915050919050565b6000611fe58473ffffffffffffffffffffffffffffffffffffffff166121a6565b1561213e578373ffffffffffffffffffffffffffffffffffffffff1663150b7a0261200e6112a6565b8786866040518563ffffffff1660e01b8152600401612030949392919061399c565b6020604051808303816000875af192505050801561206c57506040513d601f19601f8201168201806040525081019061206991906139fd565b60015b6120ee573d806000811461209c576040519150601f19603f3d011682016040523d82523d6000602084013e6120a1565b606091505b5060008151036120e6576040517f08c379a00000000000000000000000000000000000000000000000000000000081526004016120dd90613518565b60405180910390fd5b805181602001fd5b63150b7a0260e01b7bffffffffffffffffffffffffffffffffffffffffffffffffffffffff1916817bffffffffffffffffffffffffffffffffffffffffffffffffffffffff191614915050612143565b600190505b949350505050565b61215583836121c9565b6121626000848484611fc4565b6121a1576040517f08c379a000000000000000000000000000000000000000000000000000000000815260040161219890613518565b60405180910390fd5b505050565b6000808273ffffffffffffffffffffffffffffffffffffffff163b119050919050565b600073ffffffffffffffffffffffffffffffffffffffff168273ffffffffffffffffffffffffffffffffffffffff1603612238576040517f08c379a000000000000000000000000000000000000000000000000000000000815260040161222f90613a76565b60405180910390fd5b61224181611e24565b15612281576040517f08c379a000000000000000000000000000000000000000000000000000000000815260040161227890613ae2565b60405180910390fd5b61228f600083836001611e65565b61229881611e24565b156122d8576040517f08c379a00000000000000000000000000000000000000000000000000000000081526004016122cf90613ae2565b60405180910390fd5b6001600360008473ffffffffffffffffffffffffffffffffffffffff1673ffffffffffffffffffffffffffffffffffffffff16815260200190815260200160002060008282540192505081905550816002600083815260200190815260200160002060006101000a81548173ffffffffffffffffffffffffffffffffffffffff021916908373ffffffffffffffffffffffffffffffffffffffff160217905550808273ffffffffffffffffffffffffffffffffffffffff16600073ffffffffffffffffffffffffffffffffffffffff167fddf252ad1be2c89b69c2b068fc378daa952ba7f163c4a11628f55a4df523b3ef60405160405180910390a46123e2600083836001611e6b565b5050565b6000604051905090565b600080fd5b600080fd5b60007fffffffff0000000000000000000000000000000000000000000000000000000082169050919050565b61242f816123fa565b811461243a57600080fd5b50565b60008135905061244c81612426565b92915050565b600060208284031215612468576124676123f0565b5b60006124768482850161243d565b91505092915050565b60008115159050919050565b6124948161247f565b82525050565b60006020820190506124af600083018461248b565b92915050565b600081519050919050565b600082825260208201905092915050565b60005b838110156124ef5780820151818401526020810190506124d4565b60008484015250505050565b6000601f19601f8301169050919050565b6000612517826124b5565b61252181856124c0565b93506125318185602086016124d1565b61253a816124fb565b840191505092915050565b6000602082019050818103600083015261255f818461250c565b905092915050565b6000819050919050565b61257a81612567565b811461258557600080fd5b50565b60008135905061259781612571565b92915050565b6000602082840312156125b3576125b26123f0565b5b60006125c184828501612588565b91505092915050565b600073ffffffffffffffffffffffffffffffffffffffff82169050919050565b60006125f5826125ca565b9050919050565b612605816125ea565b82525050565b600060208201905061262060008301846125fc565b92915050565b61262f816125ea565b811461263a57600080fd5b50565b60008135905061264c81612626565b92915050565b60008060408385031215612669576126686123f0565b5b60006126778582860161263d565b925050602061268885828601612588565b9150509250929050565b61269b81612567565b82525050565b60006020820190506126b66000830184612692565b92915050565b6000806000606084860312156126d5576126d46123f0565b5b60006126e38682870161263d565b93505060206126f48682870161263d565b925050604061270586828701612588565b9150509250925092565b600060208284031215612725576127246123f0565b5b60006127338482850161263d565b91505092915050565b6127458161247f565b811461275057600080fd5b50565b6000813590506127628161273c565b92915050565b6000806040838503121561277f5761277e6123f0565b5b600061278d8582860161263d565b925050602061279e85828601612753565b9150509250929050565b600080fd5b600080fd5b7f4e487b7100000000000000000000000000000000000000000000000000000000600052604160045260246000fd5b6127ea826124fb565b810181811067ffffffffffffffff82111715612809576128086127b2565b5b80604052505050565b600061281c6123e6565b905061282882826127e1565b919050565b600067ffffffffffffffff821115612848576128476127b2565b5b612851826124fb565b9050602081019050919050565b82818337600083830152505050565b600061288061287b8461282d565b612812565b90508281526020810184848401111561289c5761289b6127ad565b5b6128a784828561285e565b509392505050565b600082601f8301126128c4576128c36127a8565b5b81356128d484826020860161286d565b91505092915050565b600080600080608085870312156128f7576128f66123f0565b5b60006129058782880161263d565b94505060206129168782880161263d565b935050604061292787828801612588565b925050606085013567ffffffffffffffff811115612948576129476123f5565b5b612954878288016128af565b91505092959194509250565b60008060408385031215612977576129766123f0565b5b60006129858582860161263d565b92505060206129968582860161263d565b9150509250929050565b7f4e487b7100000000000000000000000000000000000000000000000000000000600052602260045260246000fd5b600060028204905060018216806129e757607f821691505b6020821081036129fa576129f96129a0565b5b50919050565b7f4552433732313a20617070726f76616c20746f2063757272656e74206f776e6560008201527f7200000000000000000000000000000000000000000000000000000000000000602082015250565b6000612a5c6021836124c0565b9150612a6782612a00565b604082019050919050565b60006020820190508181036000830152612a8b81612a4f565b9050919050565b7f4552433732313a20617070726f76652063616c6c6572206973206e6f7420746f60008201527f6b656e206f776e6572206f7220617070726f76656420666f7220616c6c000000602082015250565b6000612aee603d836124c0565b9150612af982612a92565b604082019050919050565b60006020820190508181036000830152612b1d81612ae1565b9050919050565b7f4552433732313a2063616c6c6572206973206e6f7420746f6b656e206f776e6560008201527f72206f7220617070726f76656400000000000000000000000000000000000000602082015250565b6000612b80602d836124c0565b9150612b8b82612b24565b604082019050919050565b60006020820190508181036000830152612baf81612b73565b9050919050565b600081905092915050565b7f46495253545f574f524400000000000000000000000000000000000000000000600082015250565b6000612bf7600a83612bb6565b9150612c0282612bc1565b600a82019050919050565b6000612c18826124b5565b612c228185612bb6565b9350612c328185602086016124d1565b80840191505092915050565b6000612c4982612bea565b9150612c558284612c0d565b915081905092915050565b7f4e487b7100000000000000000000000000000000000000000000000000000000600052601260045260246000fd5b6000612c9a82612567565b9150612ca583612567565b925082612cb557612cb4612c60565b5b828206905092915050565b7f4e487b7100000000000000000000000000000000000000000000000000000000600052603260045260246000fd5b7f4552433732313a20696e76616c696420746f6b656e2049440000000000000000600082015250565b6000612d256018836124c0565b9150612d3082612cef565b602082019050919050565b60006020820190508181036000830152612d5481612d18565b9050919050565b7f4552433732313a2061646472657373207a65726f206973206e6f74206120766160008201527f6c6964206f776e65720000000000000000000000000000000000000000000000602082015250565b6000612db76029836124c0565b9150612dc282612d5b565b604082019050919050565b60006020820190508181036000830152612de681612daa565b9050919050565b7f5345434f4e445f574f5244000000000000000000000000000000000000000000600082015250565b6000612e23600b83612bb6565b9150612e2e82612ded565b600b82019050919050565b6000612e4482612e16565b9150612e508284612c0d565b915081905092915050565b7f54484952445f574f524400000000000000000000000000000000000000000000600082015250565b6000612e91600a83612bb6565b9150612e9c82612e5b565b600a82019050919050565b6000612eb282612e84565b9150612ebe8284612c0d565b915081905092915050565b6000612ed58285612c0d565b9150612ee18284612c0d565b91508190509392505050565b7f73616c65206c696d697400000000000000000000000000000000000000000000600082015250565b6000612f23600a836124c0565b9150612f2e82612eed565b602082019050919050565b60006020820190508181036000830152612f5281612f16565b9050919050565b6000612f658286612c0d565b9150612f718285612c0d565b9150612f7d8284612c0d565b9150819050949350505050565b60008190508160005260206000209050919050565b60008154612fac816129cf565b612fb68186612bb6565b94506001821660008114612fd15760018114612fe657613019565b60ff1983168652811515820286019350613019565b612fef85612f8a565b60005b8381101561301157815481890152600182019150602081019050612ff2565b838801955050505b50505092915050565b7f3c2f746578743e3c2f7376673e00000000000000000000000000000000000000600082015250565b6000613058600d83612bb6565b915061306382613022565b600d82019050919050565b600061307a8285612f9f565b91506130868284612c0d565b91506130918261304b565b91508190509392505050565b7f7b226e616d65223a202200000000000000000000000000000000000000000000600082015250565b60006130d3600a83612bb6565b91506130de8261309d565b600a82019050919050565b7f222c20226465736372697074696f6e223a20224120686967686c79206163636c60008201527f61696d656420636f6c6c656374696f6e206f6620737175617265732e222c202260208201527f696d616765223a2022646174613a696d6167652f7376672b786d6c3b6261736560408201527f36342c0000000000000000000000000000000000000000000000000000000000606082015250565b6000613191606383612bb6565b915061319c826130e9565b606382019050919050565b7f227d000000000000000000000000000000000000000000000000000000000000600082015250565b60006131dd600283612bb6565b91506131e8826131a7565b600282019050919050565b60006131fe826130c6565b915061320a8285612c0d565b915061321582613184565b91506132218284612c0d565b915061322c826131d0565b91508190509392505050565b7f646174613a6170706c69636174696f6e2f6a736f6e3b6261736536342c000000600082015250565b600061326e601d83612bb6565b915061327982613238565b601d82019050919050565b600061328f82613261565b915061329b8284612c0d565b915081905092915050565b60006040820190506132bb60008301856125fc565b6132c86020830184612692565b9392505050565b7f4552433732313a207472616e736665722066726f6d20696e636f72726563742060008201527f6f776e6572000000000000000000000000000000000000000000000000000000602082015250565b600061332b6025836124c0565b9150613336826132cf565b604082019050919050565b6000602082019050818103600083015261335a8161331e565b9050919050565b7f4552433732313a207472616e7366657220746f20746865207a65726f2061646460008201527f7265737300000000000000000000000000000000000000000000000000000000602082015250565b60006133bd6024836124c0565b91506133c882613361565b604082019050919050565b600060208201905081810360008301526133ec816133b0565b9050919050565b60006133ff8284612c0d565b915081905092915050565b60006040820190508181036000830152613424818561250c565b90506134336020830184612692565b9392505050565b7f4552433732313a20617070726f766520746f2063616c6c657200000000000000600082015250565b60006134706019836124c0565b915061347b8261343a565b602082019050919050565b6000602082019050818103600083015261349f81613463565b9050919050565b7f4552433732313a207472616e7366657220746f206e6f6e20455243373231526560008201527f63656976657220696d706c656d656e7465720000000000000000000000000000602082015250565b60006135026032836124c0565b915061350d826134a6565b604082019050919050565b60006020820190508181036000830152613531816134f5565b9050919050565b7f4e487b7100000000000000000000000000000000000000000000000000000000600052601160045260246000fd5b600061357282612567565b915061357d83612567565b925082820190508082111561359557613594613538565b5b92915050565b60006135a682612567565b91506135b183612567565b9250826135c1576135c0612c60565b5b828204905092915050565b60006135d782612567565b91506135e283612567565b92508282026135f081612567565b9150828204841483151761360757613606613538565b5b5092915050565b7f45524337323155524953746f726167653a2055524920736574206f66206e6f6e60008201527f6578697374656e7420746f6b656e000000000000000000000000000000000000602082015250565b600061366a602e836124c0565b91506136758261360e565b604082019050919050565b600060208201905081810360008301526136998161365d565b9050919050565b60006020601f8301049050919050565b600082821b905092915050565b6000600883026136ed7fffffffffffffffffffffffffffffffffffffffffffffffffffffffffffffffff826136b0565b6136f786836136b0565b95508019841693508086168417925050509392505050565b6000819050919050565b600061373461372f61372a84612567565b61370f565b612567565b9050919050565b6000819050919050565b61374e83613719565b61376261375a8261373b565b8484546136bd565b825550505050565b600090565b61377761376a565b613782818484613745565b505050565b5b818110156137a65761379b60008261376f565b600181019050613788565b5050565b601f8211156137eb576137bc81612f8a565b6137c5846136a0565b810160208510156137d4578190505b6137e86137e0856136a0565b830182613787565b50505b505050565b600082821c905092915050565b600061380e600019846008026137f0565b1980831691505092915050565b600061382783836137fd565b9150826002028217905092915050565b613840826124b5565b67ffffffffffffffff811115613859576138586127b2565b5b61386382546129cf565b61386e8282856137aa565b600060209050601f8311600181146138a1576000841561388f578287015190505b613899858261381b565b865550613901565b601f1984166138af86612f8a565b60005b828110156138d7578489015182556001820191506020850194506020810190506138b2565b868310156138f457848901516138f0601f8916826137fd565b8355505b6001600288020188555050505b505050505050565b60006060820190508181036000830152613923818661250c565b90506139326020830185612692565b61393f60408301846125fc565b949350505050565b600081519050919050565b600082825260208201905092915050565b600061396e82613947565b6139788185613952565b93506139888185602086016124d1565b613991816124fb565b840191505092915050565b60006080820190506139b160008301876125fc565b6139be60208301866125fc565b6139cb6040830185612692565b81810360608301526139dd8184613963565b905095945050505050565b6000815190506139f781612426565b92915050565b600060208284031215613a1357613a126123f0565b5b6000613a21848285016139e8565b91505092915050565b7f4552433732313a206d696e7420746f20746865207a65726f2061646472657373600082015250565b6000613a606020836124c0565b9150613a6b82613a2a565b602082019050919050565b60006020820190508181036000830152613a8f81613a53565b9050919050565b7f4552433732313a20746f6b656e20616c7265616479206d696e74656400000000600082015250565b6000613acc601c836124c0565b9150613ad782613a96565b602082019050919050565b60006020820190508181036000830152613afb81613abf565b905091905056fe416e204e465420772f20494420257320686173206265656e206d696e74656420746f2025734142434445464748494a4b4c4d4e4f505152535455565758595a6162636465666768696a6b6c6d6e6f707172737475767778797a303132333435363738392b2fa2646970667358221220cafd4d19aa02e1061e0568baa46b7f0a4197f9db35643dc9c85d5a607abe9b3564736f6c634300081100333c73766720786d6c6e733d27687474703a2f2f7777772e77332e6f72672f323030302f73766727207072657365727665417370656374526174696f3d27784d696e594d696e206d656574272076696577426f783d273020302033353020333530273e3c7374796c653e2e62617365207b2066696c6c3a2077686974653b20666f6e742d66616d696c793a2073657269663b20666f6e742d73697a653a20323470783b207d3c2f7374796c653e3c726563742077696474683d273130302527206865696768743d2731303025272066696c6c3d27626c61636b27202f3e3c7465787420783d273530252720793d273530252720636c6173733d27626173652720646f6d696e616e742d626173656c696e653d276d6964646c652720746578742d616e63686f723d276d6964646c65273e",
  "linkReferences": {},
  "deployedLinkReferences": {}
}